{
  "contractName": "Greeter",
  "abi": [
    {
      "anonymous": false,
      "inputs": [
        {
          "indexed": true,
          "internalType": "address",
          "name": "previousOwner",
          "type": "address"
        },
        {
          "indexed": true,
          "internalType": "address",
          "name": "newOwner",
          "type": "address"
        }
      ],
      "name": "OwnershipTransferred",
      "type": "event"
    },
    {
      "inputs": [],
      "name": "owner",
      "outputs": [
        {
          "internalType": "address",
          "name": "",
          "type": "address"
        }
      ],
      "stateMutability": "view",
      "type": "function"
    },
    {
      "inputs": [],
      "name": "renounceOwnership",
      "outputs": [],
      "stateMutability": "nonpayable",
      "type": "function"
    },
    {
      "inputs": [
        {
          "internalType": "address",
          "name": "newOwner",
          "type": "address"
        }
      ],
      "name": "transferOwnership",
      "outputs": [],
      "stateMutability": "nonpayable",
      "type": "function"
    },
    {
      "inputs": [],
      "name": "greet",
      "outputs": [
        {
          "internalType": "string",
          "name": "",
          "type": "string"
        }
      ],
      "stateMutability": "view",
      "type": "function"
    },
    {
      "inputs": [
        {
          "internalType": "string",
          "name": "greeting",
          "type": "string"
        }
      ],
      "name": "setGreeting",
      "outputs": [],
      "stateMutability": "nonpayable",
      "type": "function"
    }
  ],
  "bytecode": "0x60806040526040518060400160405280600d81526020017f48656c6c6f2c20576f726c6421000000000000000000000000000000000000008152506001908051906020019061004f929190610118565b5034801561005c57600080fd5b50600061006d61011060201b60201c565b9050806000806101000a81548173ffffffffffffffffffffffffffffffffffffffff021916908373ffffffffffffffffffffffffffffffffffffffff1602179055508073ffffffffffffffffffffffffffffffffffffffff16600073ffffffffffffffffffffffffffffffffffffffff167f8be0079c531659141344cd1fd0a4f28419497f9722a3daafe3b4186f6b6457e060405160405180910390a35061021c565b600033905090565b828054610124906101bb565b90600052602060002090601f016020900481019282610146576000855561018d565b82601f1061015f57805160ff191683800117855561018d565b8280016001018555821561018d579182015b8281111561018c578251825591602001919060010190610171565b5b50905061019a919061019e565b5090565b5b808211156101b757600081600090555060010161019f565b5090565b600060028204905060018216806101d357607f821691505b602082108114156101e7576101e66101ed565b5b50919050565b7f4e487b7100000000000000000000000000000000000000000000000000000000600052602260045260246000fd5b6109458061022b6000396000f3fe608060405234801561001057600080fd5b50600436106100575760003560e01c8063715018a61461005c5780638da5cb5b14610066578063a413686214610084578063cfae3217146100a0578063f2fde38b146100be575b600080fd5b6100646100da565b005b61006e610214565b60405161007b9190610710565b60405180910390f35b61009e6004803603810190610099919061063d565b61023d565b005b6100a86102cf565b6040516100b5919061072b565b60405180910390f35b6100d860048036038101906100d39190610614565b610361565b005b6100e261050a565b73ffffffffffffffffffffffffffffffffffffffff16610100610214565b73ffffffffffffffffffffffffffffffffffffffff1614610156576040517f08c379a000000000000000000000000000000000000000000000000000000000815260040161014d9061076d565b60405180910390fd5b600073ffffffffffffffffffffffffffffffffffffffff1660008054906101000a900473ffffffffffffffffffffffffffffffffffffffff1673ffffffffffffffffffffffffffffffffffffffff167f8be0079c531659141344cd1fd0a4f28419497f9722a3daafe3b4186f6b6457e060405160405180910390a360008060006101000a81548173ffffffffffffffffffffffffffffffffffffffff021916908373ffffffffffffffffffffffffffffffffffffffff160217905550565b60008060009054906101000a900473ffffffffffffffffffffffffffffffffffffffff16905090565b61024561050a565b73ffffffffffffffffffffffffffffffffffffffff16610263610214565b73ffffffffffffffffffffffffffffffffffffffff16146102b9576040517f08c379a00000000000000000000000000000000000000000000000000000000081526004016102b09061076d565b60405180910390fd5b8181600191906102ca929190610512565b505050565b6060600180546102de9061080e565b80601f016020809104026020016040519081016040528092919081815260200182805461030a9061080e565b80156103575780601f1061032c57610100808354040283529160200191610357565b820191906000526020600020905b81548152906001019060200180831161033a57829003601f168201915b5050505050905090565b61036961050a565b73ffffffffffffffffffffffffffffffffffffffff16610387610214565b73ffffffffffffffffffffffffffffffffffffffff16146103dd576040517f08c379a00000000000000000000000000000000000000000000000000000000081526004016103d49061076d565b60405180910390fd5b600073ffffffffffffffffffffffffffffffffffffffff168173ffffffffffffffffffffffffffffffffffffffff16141561044d576040517f08c379a00000000000000000000000000000000000000000000000000000000081526004016104449061074d565b60405180910390fd5b8073ffffffffffffffffffffffffffffffffffffffff1660008054906101000a900473ffffffffffffffffffffffffffffffffffffffff1673ffffffffffffffffffffffffffffffffffffffff167f8be0079c531659141344cd1fd0a4f28419497f9722a3daafe3b4186f6b6457e060405160405180910390a3806000806101000a81548173ffffffffffffffffffffffffffffffffffffffff021916908373ffffffffffffffffffffffffffffffffffffffff16021790555050565b600033905090565b82805461051e9061080e565b90600052602060002090601f0160209004810192826105405760008555610587565b82601f1061055957803560ff1916838001178555610587565b82800160010185558215610587579182015b8281111561058657823582559160200191906001019061056b565b5b5090506105949190610598565b5090565b5b808211156105b1576000816000905550600101610599565b5090565b6000813590506105c4816108f8565b92915050565b60008083601f8401126105dc57600080fd5b8235905067ffffffffffffffff8111156105f557600080fd5b60208301915083600182028301111561060d57600080fd5b9250929050565b60006020828403121561062657600080fd5b6000610634848285016105b5565b91505092915050565b6000806020838503121561065057600080fd5b600083013567ffffffffffffffff81111561066a57600080fd5b610676858286016105ca565b92509250509250929050565b61068b816107a9565b82525050565b600061069c8261078d565b6106a68185610798565b93506106b68185602086016107db565b6106bf8161086f565b840191505092915050565b60006106d7602683610798565b91506106e282610880565b604082019050919050565b60006106fa602083610798565b9150610705826108cf565b602082019050919050565b60006020820190506107256000830184610682565b92915050565b600060208201905081810360008301526107458184610691565b905092915050565b60006020820190508181036000830152610766816106ca565b9050919050565b60006020820190508181036000830152610786816106ed565b9050919050565b600081519050919050565b600082825260208201905092915050565b60006107b4826107bb565b9050919050565b600073ffffffffffffffffffffffffffffffffffffffff82169050919050565b60005b838110156107f95780820151818401526020810190506107de565b83811115610808576000848401525b50505050565b6000600282049050600182168061082657607f821691505b6020821081141561083a57610839610840565b5b50919050565b7f4e487b7100000000000000000000000000000000000000000000000000000000600052602260045260246000fd5b6000601f19601f8301169050919050565b7f4f776e61626c653a206e6577206f776e657220697320746865207a65726f206160008201527f6464726573730000000000000000000000000000000000000000000000000000602082015250565b7f4f776e61626c653a2063616c6c6572206973206e6f7420746865206f776e6572600082015250565b610901816107a9565b811461090c57600080fd5b5056fea2646970667358221220020f54981ece5d1fd346efa66af0cba5bc99a986f82a3a028e0748eb4924a9f964736f6c63430008040033",
  "immutableReferences": {},
  "source": "// SPDX-License-Identifier: UNLICENSED\npragma solidity ^0.8.4;\n\nimport \"openzeppelin-solidity/contracts/access/Ownable.sol\";\n\ncontract Greeter is Ownable {\n    string private _greeting = \"Hello, World!\";\n    address private _owner;\n\n    function greet() external view returns (string memory) {\n        return _greeting;\n    }\n\n    function setGreeting(string calldata greeting) external onlyOwner {\n        _greeting = greeting;\n    }\n}\n\n",
  "sourcePath": "/home/shkwon/Projects/Truffle/greeter/contracts/Greeter.sol",
  "compiler": {
    "name": "solc",
    "version": "0.8.4+commit.c7e474f2.Emscripten.clang"
  },
  "schemaVersion": "3.4.1",
  "updatedAt": "2021-05-27T00:13:50.370Z",
  "devdoc": {
    "kind": "dev",
    "methods": {
      "owner()": {
        "details": "Returns the address of the current owner."
      },
      "renounceOwnership()": {
        "details": "Leaves the contract without owner. It will not be possible to call `onlyOwner` functions anymore. Can only be called by the current owner. NOTE: Renouncing ownership will leave the contract without an owner, thereby removing any functionality that is only available to the owner."
      },
      "transferOwnership(address)": {
        "details": "Transfers ownership of the contract to a new account (`newOwner`). Can only be called by the current owner."
      }
    },
    "version": 1
  },
  "userdoc": {
    "kind": "user",
    "methods": {},
    "version": 1
  }
}